:1000000027C049C048C047C046C02EC144C043C0F5
:1000100042C041C040C03FC03EC03DC03CC00000E7
:10002000000038000000000037000000000036002B
:10003000020202020202020202020102040810206D
:100040002004100801020000040000000000E70284
:1000500011241FBECFEDCDBF10E0A0E6B0E0E6ED6D
:10006000F7E002C005900D92A036B107D9F720E065
:10007000A0E6B0E001C01D92A637B207E1F710E09C
:10008000C8E2D0E003C02197FE019DD3C732D1075B
:10009000D1F734D19EC3B4CF90E0FC01EC5BFF4FAD
:1000A0002491FC01E65CFF4F3491FC01E05DFF4FC1
:1000B000E491EE2319F1222399F0223071F028F413
:1000C000213071F48AB58F770AC0233011F02430C3
:1000D00039F48CB58F7D8CBD03C08AB58F7D8ABD08
:1000E000F0E0EE0FFF1FE65DFF4FA591B491EC919C
:1000F000E32381E090E021F480E0089580E090E047
:100100000895CF93DF9390E0FC01E65CFF4F2491CC
:10011000FC01E05DFF4F8491882361F190E0880F3E
:10012000991FFC01EC5DFF4FC591D491FC01E25E8B
:10013000FF4FA591B491611109C09FB7F8948881D0
:10014000209582238883EC912E230BC0623061F4CA
:100150009FB7F8943881822F809583238883EC9110
:100160002E2B2C939FBF06C08FB7F894E8812E2BBF
:1001700028838FBFDF91CF9108953FB7F894809186
:10018000650090916600A0916700B091680022B769
:1001900008B601FE05C02F3F19F00196A11DB11D43
:1001A0003FBFBA2FA92F982F8827820F911DA11D1D
:1001B000B11DBC01CD0146E0660F771F881F991F56
:1001C0004A95D1F708958F929F92AF92BF92CF92A6
:1001D000DF92EF92FF92D1DF4B015C0184E6C82EE3
:1001E000D12CE12CF12CC9DFDC01CB018819990954
:1001F000AA09BB09883E9340A105B10558F021E04A
:10020000C21AD108E108F10888EE880E83E0981E32
:10021000A11CB11CC114D104E104F10421F7FF9029
:10022000EF90DF90CF90BF90AF909F908F90089508
:100230002FB7F89460916100709162008091630023
:10024000909164002FBF0895CF93DF931EBCBBDF56
:10025000CAE6D0E088818EBDB6DF1EBCB4DF8881DF
:100260008EBDDF91CF9108951F920F920FB60F921E
:1002700011242F933F938F939F93AF93BF938091BC
:10028000610090916200A0916300B0916400309190
:10029000600020E3230F2D3720F44096A11DB11DEF
:1002A00005C023EB230F4196A11DB11D20936000D3
:1002B0008093610090936200A0936300B093640008
:1002C0008091650090916600A0916700B0916800F0
:1002D0000196A11DB11D8093650090936600A093C7
:1002E0006700B0936800BF91AF919F918F913F914C
:1002F0002F910F900FBE0F901F901895CF93DF9303
:100300001F92CDB7DD2778948AB582608ABD8AB501
:1003100081608ABD83B7826083BF83B7816083BFFA
:1003200089B7826089BF80B7826080BF3298319A76
:10033000309A379A8CB580648CBD88E080936900D0
:1003400062E084E0DEDE62E082E0DBDE62E080E04C
:10035000D8DE61E081E0D5DE86E087BD83EE80BF38
:100360001CBC8FE98DBD0AE010E088248A9473E0FC
:10037000972EA12CB12CE0E0EE2EE0E0FE2EDD2445
:10038000D39484E089DE20917500892B31F5211109
:100390000BC0D09275004CDF6093710070937200B7
:1003A000809373009093740043DF409071005090ED
:1003B00072006090730070907400DC01CB018419AE
:1003C0009509A609B70989389341A105B10540F0FF
:1003D00080917000811104C0E3C02111109275005A
:1003E00080917000882309F487C022DF409071005B
:1003F000509072006090730070907400DC01CB012B
:1004000084199509A609B70989389341A105B10551
:1004100078F01092700018DF60916E0080E090E03C
:100420006983DED06981681719F080E090E0E0D040
:1004300082E032DE892B59F4FBDE60937100709309
:1004400072008093730090937400D0926D0080E0EE
:1004500023DE892B59F4ECDE6093710070937200F7
:100460008093730090937400D0926C0020906E0083
:1004700030906F0080EA2816310434F5D9DE4090C0
:100480007100509072006090730070907400DC01F5
:10049000CB0184199509A609B70985369105A105EF
:1004A000B10570F080916D00882351F024E1220E97
:1004B000311C30926F0020926E0010926D001CC0B3
:1004C00081E528163104C4F0B3DE409071005090ED
:1004D00072006090730070907400DC01CB0184198D
:1004E0009509A609B70985369105A105B10520F042
:1004F00080916C00811161C060906E0070906F00FF
:100500004AE050E080E090E02091690030E064E053
:10051000220F331F6A95E1F727B9369A3699FECF35
:1005200024B165B130E0362B820F931F4150510941
:1005300059F7B80121D1072E000C880B990B2CE438
:1005400034E040E050E07ED0B901CA01A501940139
:100550005DD0C901B301695F7F4F243B310541057F
:1005600051054CF42617370734F480916A009091B6
:100570006B00019608C0681779074CF480916A00F7
:1005800090916B00019790936B0080936A0080912B
:100590006A008EBDE114F10409F4F3CE31DDF1CE31
:1005A000D092700051DE44DE60937100709372004F
:1005B000809373009093740013CF24E1221A3108C2
:1005C00030926F0020926E0010926C0095CF80E008
:1005D00090E006D090E090936F0080936E000895B5
:1005E000E199FECF1FBA8EBBE09A99278DB308958B
:1005F000262FE199FECF1CBA1FBA8EBB2DBB0FB6BA
:10060000F894E29AE19A0FBE01960895052E97FBA1
:1006100016F400940FD057FD05D05ED007FC02D031
:1006200046F408C050954095309521953F4F4F4F67
:100630005F4F089590958095709561957F4F8F4F8E
:100640009F4F089568940013E894A0E0B0E0EAE2B8
:10065000F3E01DC0EFEFE7F959016A015E23550F82
:10066000EE08FE2C87019B01AC019E23990F660BBF
:10067000762FCB0153D0CDB7DD27EAE01FC02F92F4
:100680003F924F925F926F927F928F929F92AF9222
:10069000BF92CF92DF92EF92FF920F931F93CF936F
:1006A000DF93CDB7CA1BCDBFDD2709942A883988CF
:1006B00048885F846E847D848C849B84AA84B984FA
:1006C000C884DF80EE80FD800C811B81AA81D981E6
:1006D000CE0FCDBFCA2F0895A1E21A2EAA1BBB1BB5
:1006E000FD010DC0AA1FBB1FEE1FFF1FA217B307FE
:1006F000E407F50720F0A21BB30BE40BF50B661F14
:10070000771F881F991F1A9469F7609570958095D7
:1007100090959B01AC01BD01CF010895DF93CF936C
:100720009F92A0E49A2E0024D001E001F0011695DA
:100730000795F794E794D794C794B794A79448F48F
:100740001068A20FB31FC41FD51FE61FF71F081E96
:10075000191E220F331F441F551F661F771F881F46
:10076000991F9A9421F79D01AE01BF01C001112488
:100770009F90CF91DF91089597FB072E16F4009478
:1007800006D077FD08D00BD007FC05D03EF490953D
:1007900081959F4F0895709561957F4F0895AA1B8D
:1007A000BB1B51E107C0AA1FBB1FA617B70710F05C
:1007B000A61BB70B881F991F5A95A9F7809590958E
:1007C000BC01CD010895EE0FFF1F0590F491E02DBF
:0607D0000994F894FFCF2C
:00000001FF
