:1000000027C049C048C047C046C0C3C044C043C061
:1000100042C041C040C03FC03EC03DC03CC00000E7
:10002000000038000000000037000000000036002B
:10003000020202020202020202020102040810206D
:100040002004100801020000040000000000320239
:1000500011241FBECFEDCDBF10E0A0E6B0E0ECE66E
:10006000F6E002C005900D92A036B107D9F720E066
:10007000A0E6B0E001C01D92A637B207E1F710E09C
:10008000C8E2D0E003C02197FE01E8D2C732D10711
:10009000D1F7C9D0E9C2B4CF90E0FC01EC5BFF4FCF
:1000A0002491FC01E65CFF4F3491FC01E05DFF4FC1
:1000B000E491EE2319F1222399F0223071F028F413
:1000C000213071F48AB58F770AC0233011F02430C3
:1000D00039F48CB58F7D8CBD03C08AB58F7D8ABD08
:1000E000F0E0EE0FFF1FE65DFF4FA591B491EC919C
:1000F000E32381E090E021F480E0089580E090E047
:100100000895CF93DF9390E0FC01E65CFF4F2491CC
:10011000FC01E05DFF4F8491882361F190E0880F3E
:10012000991FFC01EC5DFF4FC591D491FC01E25E8B
:10013000FF4FA591B491611109C09FB7F8948881D0
:10014000209582238883EC912E230BC0623061F4CA
:100150009FB7F8943881822F809583238883EC9110
:100160002E2B2C939FBF06C08FB7F894E8812E2BBF
:1001700028838FBFDF91CF9108952FB7F8946091B6
:1001800065007091660080916700909168002FBFB4
:1001900008951F920F920FB60F9211242F933F9341
:1001A0008F939F93AF93BF9380916500909166006A
:1001B000A0916700B09168003091640020E3230FA4
:1001C0002D3720F44096A11DB11D05C023EB230F50
:1001D0004196A11DB11D209364008093650090930A
:1001E0006600A0936700B0936800809160009091D2
:1001F0006100A0916200B09163000196A11DB11D44
:100200008093600090936100A0936200B0936300BC
:10021000BF91AF919F918F913F912F910F900FBE02
:100220000F901F90189578948AB582608ABD8AB520
:1002300081608ABD83B7826083BF83B7816083BFDB
:1002400089B7826089BF80B7826080BF3298319A57
:10025000309A379A8CB580648CBD88E080936900B1
:1002600062E084E04EDF62E082E04BDF62E080E04B
:1002700048DF61E081E045DF86E087BD83EE80BF37
:100280001CBC8FE98DBD7AE0E72EF12C88248A947E
:10029000E3E09E2EA12CB12CF0E0CF2EF0E0DF2E7B
:1002A00001E010E082E0F8DE892B29F484E0F4DE3E
:1002B000892B09F4BBC080E0EFDE892B29F484E0B0
:1002C000EBDE892B09F4C0C0C0916C00D0916D00A9
:1002D000CF3BD10564F551DF409072005090730020
:1002E0006090740070907500DC01CB018419950951
:1002F000A609B70985369105A105B105C0F0809121
:10030000700090917100019791F42A96D0936D003E
:10031000C0936C00109271001092700081E090E028
:10032000AAD0C81721F06C2F81E090E0ACD0C0912A
:100330006C00D0916D00CA30D10564F11EDF409091
:100340007200509073006090740070907500DC0132
:10035000CB0184199509A609B70985369105A10530
:10036000B105C0F080916E0090916F00019791F4FB
:100370002A97D0936D00C0936C0010926F0010927A
:100380006E0081E090E077D0C81721F06C2F81E0FB
:1003900090E079D0C0916C00D0916D004AE050E0BF
:1003A00080E090E02091690030E064E0220F331F8C
:1003B0006A95E1F727B9369A3699FECF24B165B12F
:1003C00030E0362B820F931F4150510959F7B70186
:1003D0001ED1072E000C880B990B2CE434E040E072
:1003E00050E07BD0B901CA01A50194015AD02596ED
:1003F0002C173D0734F480916A0090916B000196B0
:1004000008C0C217D3074CF480916A0090916B002A
:10041000019790936B0080936A0080916A008EBD73
:10042000C114D10409F43ECFEBDD3CCFA6DE6093CE
:100430007200709373008093740090937500109312
:1004400071000093700037CF98DE60937200709354
:100450007300809374009093750010936F00009365
:100460006E0032CF81E090E006D090E090936D0076
:1004700080936C000895E199FECF1FBA8EBBE09A7D
:1004800099278DB30895262FE199FECF1CBA1FBA84
:100490008EBB2DBB0FB6F894E29AE19A0FBE01967F
:1004A0000895052E97FB16F400940FD057FD05D044
:1004B0005ED007FC02D046F408C0509540953095B8
:1004C00021953F4F4F4F5F4F0895909580957095C0
:1004D00061957F4F8F4F9F4F089568940013E89464
:1004E000A0E0B0E0E5E7F2E01DC0EFEFE7F9590169
:1004F0006A015E23550FEE08FE2C87019B01AC01BB
:100500009E23990F660B762FCB0153D0CDB7DD27F5
:10051000EAE01FC02F923F924F925F926F927F92BC
:100520008F929F92AF92BF92CF92DF92EF92FF9203
:100530000F931F93CF93DF93CDB7CA1BCDBFDD279A
:1005400009942A88398848885F846E847D848C84E5
:100550009B84AA84B984C884DF80EE80FD800C81EE
:100560001B81AA81D981CE0FCDBFCA2F0895A1E2E8
:100570001A2EAA1BBB1BFD010DC0AA1FBB1FEE1F1D
:10058000FF1FA217B307E407F50720F0A21BB30B68
:10059000E40BF50B661F771F881F991F1A9469F7E4
:1005A00060957095809590959B01AC01BD01CF0140
:1005B0000895DF93CF939F92A0E49A2E0024D00158
:1005C000E001F00116950795F794E794D794C79446
:1005D000B794A79448F41068A20FB31FC41FD51F87
:1005E000E61FF71F081E191E220F331F441F551F39
:1005F000661F771F881F991F9A9421F79D01AE01EE
:10060000BF01C00111249F90CF91DF91089597FB06
:10061000072E16F4009406D077FD08D00BD007FC07
:1006200005D03EF4909581959F4F08957095619502
:100630007F4F0895AA1BBB1B51E107C0AA1FBB1F18
:10064000A617B70710F0A61BB70B881F991F5A955E
:10065000A9F780959095BC01CD010895EE0FFF1F7D
:0C0660000590F491E02D0994F894FFCF70
:00000001FF
